:020000040800F2
:1000000068660120A10100084D5D0008D943000881
:10001000DD490008D7220008F57F00080000000035
:100020000000000000000000000000005176000801
:100030002926000800000000E5720008C1760008CB
:10004000BB010008BB010008BB010008BB010008A0
:10005000BB010008BB010008BB010008BB01000890
:10006000BB010008BB010008BB010008BB01000880
:10007000BB010008BB010008BB010008BB01000870
:10008000BB010008BB010008BB010008BB01000860
:10009000BB010008BB010008BB010008BB01000850
:1000A000BB010008BB010008BB010008BB01000840
:1000B00065770008BB010008BB010008BB01000810
:1000C000BB010008BB010008BB010008BB01000820
:1000D000BB010008E97F0008BB010008BB01000864
:1000E000BB010008BB010008BB010008BB01000800
:1000F000BB010008BB010008BB010008BB010008F0
:10010000BB010008BB010008BB010008BB010008DF
:10011000BB010008BB010008BB010008BB010008CF
:1001200015230008BB010008212300082D23000827
:10013000BB010008BB010008BB010008BB010008AF
:10014000BB010008BB010008BB010008BB0100089F
:10015000BB010008BB01000839230008BB010008EF
:10016000BB010008BB010008BB010008BB0100087F
:10017000BB010008BB010008BB0100080000000033
:10018000BB010008BB010008DFF810D000F00EFC36
:10019000004800477D960008AFF3008068660120A4
:1001A0000648804706480047FEE7FEE7FEE7FEE711
:1001B000FEE7FEE7FEE7FEE7FEE7FEE7557700080D
:1001C000890100082DE9F05F0546002092469B4614
:1001D00088460646814640241BE02846414647465D
:1001E000224600F0D0FA53465A46C01A914110D325
:1001F00011461846224600F0B7FA2D1A67EB01089F
:100200004F4622460120002100F0AEFA17EB00090C
:100210004E41201EA4F10104DFDC484631462A4647
:100220004346BDE8F09F40EA01039B0703D009E085
:1002300008C9121F08C0042AFAD203E011F8013BD2
:1002400000F8013B521EF9D27047D2B201E000F82B
:10025000012B491EFBD270470022F6E710B513466A
:100260000A4604461946FFF7F0FF204610BD10B5B8
:10027000044604E00B7800F8013B03B1491C521E10
:10028000F8D2204610BD421C10F8011B0029FBD1FA
:10029000801A704710B5002200E0521C835C8C5C11
:1002A000A34201D1002BF8D1D8B2E1B2401A10BD5F
:1002B000034611F8012B00F8012B002AF9D118464A
:1002C00070472DE9FE4F804681EA0300C00F0C46BF
:1002D000009021F0004123F00045B8EB0200A94155
:1002E00005D24046214690461C460B46024623F066
:1002F0000040104347D0270DC7F30A00C3F30A514B
:100300000290401A019040286BDAC3F3130040F4C6
:10031000801B0098924620B10023D2EB030A63EBC6
:100320000B0B01985946C0F14002504600F01CFAF0
:1003300006460D4650465946019A00F034FA10EB35
:1003400008006141002487EA115284EAE7731A43E6
:1003500040D0009A62B3019A012A4FEA075215DC95
:10036000001B61EB02014FF0004202EA0752CDE9A7
:100370000042001C41F5801132462B4600F06BFA1A
:1003800003B0BDE8F08F40462146F9E7001B61EB62
:100390000201001C41F5801300185B412018A2F5F2
:1003A000001747EB030140EAD570B6196D4111E023
:1003B0006D084FEA360645EAC0754FEA0752001B42
:1003C00061EB0201001C41F5801149084FEA300041
:1003D0000019514132462B4603B0BDE8F04F00F002
:1003E0002BBA0098012240000023D0EB020263EBFD
:1003F000E073009821464FEAE074B8EB000061EB2F
:100400000401E9E783F000435BE781F0004158E72E
:100410002DE9FE4F81EA030404F0004421F000417D
:1004200000944FF0000B23F0004350EA01045ED02B
:1004300052EA03045BD0C3F30A54C1F30A552C44B7
:10044000A4F2F3340194A0FB0254C1F3130141F46C
:100450008011C3F3130343F4801301FB024400FB38
:10046000034E840A970A44EA815447EA8357A4FB5F
:10047000076802958D0A05FB07854FEA932C04FB5C
:100480000C542705029D4FEA065847EA1637B5EB8C
:1004900008056EEB070C870E920E47EA811742EAB9
:1004A0008312A7FB0201B6EB0B0164EB00042B0DDA
:1004B00043EA0C335E1844EB1C50DA465146E7FB26
:1004C0000201C5F313044FEA0B3343EA14534FEA16
:1004D0000432019C43EA0603A4F10C040294009C3C
:1004E000CDE900B400F0B7F903B0BDE8F08F00200B
:1004F0000146F9E72DE9F04D81EA030404F0004BD1
:1005000021F0004514464FF0000A23F0004150EA64
:10051000050220D054EA01021DD0C5F30A57024655
:10052000C5F31303C1F31300C1F30A5640F4801559
:1005300043F48013A7EB0608101BD64608F2FD38DB
:1005400073EB050002D308F1010801E092185B414A
:10055000B8F1000F03DA00200146BDE8F08D00205D
:100560004FF48011064684460EE0171B73EB050717
:1005700005D3121B63EB050306434CEA010C490843
:100580004FEA300092185B4150EA0107EDD152EA80
:10059000030012D082EA040083EA0501084305D073
:1005A000101BAB4106D20122002306E000224FF0CF
:1005B000004302E06FF0010253101AEB06004CEB0F
:1005C000085110EB0A0041EB0B01BDE8F04D00F0C3
:1005D00033B90EB5C10F80EAE0700844CA070021A4
:1005E00040F233438DE80E000A460B4600F033F923
:1005F00003B000BD0EB540F2334102910021CDE9B8
:1006000000110A460B4600F026F903B000BD70B594
:10061000C1F30A5201F000450024C1F3130140F276
:10062000FF3341F480119A4201DA002070BD40F29C
:1006300033439A42A2F2334203DC524200F0A3F861
:1006400000E090402C43F1D0404270BDC1F30A520B
:1006500010B5C1F3130140F2FF3341F480119A4207
:1006600001DA002010BD40F233439A42A2F2334235
:1006700003DC524200F087F810BD904010BD00F03E
:10068000004230F000400AD0C10D01F56071C0F3A6
:10069000160042EA0151C20840071143704700208A
:1006A0000146704730B5041E71F1000404DB4FF0C1
:1006B0000044404264EB0101141E73F1000405DBA9
:1006C0001C464FF00043524263EB04038B4208BFC9
:1006D000824230BD30B5041E71F1000404DB4FF0DE
:1006E0000044404264EB0101141E73F1000405DB79
:1006F0001C464FF00043524263EB0403994208BF8B
:10070000904230BD01F0004330B421F0004150EA86
:10071000010206D00A0DA2F56072C1F31301002A8E
:1007200002DC30BC00207047440F44EAC104C10021
:10073000E01830BC00EBC25000F047B830B50B46B3
:10074000014600202022012409E021FA02F59D4201
:1007500005D303FA02F5491B04FA02F52844151ED5
:10076000A2F10102F1DC30BD202A04DB203A00FABC
:1007700002F1002070479140C2F1200320FA03F3F8
:10078000194390407047202A04DB203A21FA02F0F6
:100790000021704721FA02F3D040C2F120029140BB
:1007A000084319467047202A06DBCB17203A41FA46
:1007B00002F043EAE07306E041FA02F3D040C2F1EE
:1007C000200291400843194670470029A8BF70478E
:1007D000401C490008BF20F00100704710B4B0FA77
:1007E00080FC00FA0CF050EA010404BF10BC704712
:1007F00049B1CCF1200421FA04F411FA0CF118BF2C
:10080000012121430843A3EB0C01CB1D4FEA0061FA
:100810004FEA102042BF002010BC704700EBC350CD
:1008200010440029A4BF10BC7047401C490008BFF9
:1008300020F0010010BC704710B5141E73F10004C5
:1008400008DA401C41F1000192185B411A4301D1C2
:1008500020F0010010BD2DE9F04D92469B4611B1EC
:10086000B1FA81F202E0B0FA80F220329046FFF74E
:100870007BFF04460F4640EA0A0041EA0B0153465B
:100880005A46084313D0114653EA010019D0C8F163
:1008900040025046FFF777FF05460E465046594640
:1008A0004246FFF761FF084305D0012004E02046DF
:1008B0003946BDE8F08D0020054346EAE0762C433A
:1008C00037430A986305E40AA0EB08000022FD0AFA
:1008D00044EA47540A3002D500200146E9E7010501
:1008E00010196941DDE9084500196941BDE8F04D7D
:1008F000A2E700002DE9F041054621F000400C463A
:10090000284309D0C4F30A5040F23341884205DD40
:1009100028462146BDE8F0812846FBE740F2FE313B
:10092000884210DC0CDB4FEA043040EA155050EAF4
:10093000053105D0104804F0004101430020E9E7EB
:1009400000200146E6E7A0F233404642C6F14002ED
:1009500028462146FFF708FF0746884628462146D5
:100960003246FFF710FF43463A46FFF765FF32462F
:10097000BDE8F041FFF7F8BE0000F03FC1F30A52B6
:10098000C1F3130140F2FF3341F480119A4202DABD
:1009900000200146704740F233439A42A2F23342AC
:1009A00002DC5242FFF7EFBEFFF7DEBE064C074DFA
:1009B00006E0E06840F0010394E80700984710342F
:1009C000AC42F6D3FFF7E4FB14780208347802084F
:1009D000F0B5F1B1002300BF02EB430C32F813E095
:1009E000BCF802C02EF0030E2CF0030C50F80E5091
:1009F00050F80C6000EB0E0400EB0C0740F80E60A2
:100A000040F80C507E68656802338B4266607D60FA
:100A1000E2D3F0BD2DE9F04104889846164607461A
:100A2000012A0D460CD1E4B3281D214690ED000AA1
:100A30000139B1EE400A80ED000A00F10800F5D15D
:100A4000FF2C0CDDB4F5806F10DBB4F5805F22D095
:100A5000B4F5006F11D0B4F5806F17D021E03F2CB2
:100A600010DC102C12D0202C07D01AE0B4F5807FB7
:100A700003D0B4F5007F0ED013E03846294600F0CD
:100A80005FF90EE0402C06D0802C0AD1384629466A
:100A900000F08AF805E07A6828462146012300F034
:100AA00011FEB8F1000F04D0B989BA682846FFF7E3
:100AB0008FFF012E1CD100EE104A002CB8EE400A28
:100AC00008BFBDE8F081B7EE001A81EE000A00BF52
:100AD00095ED001A95ED012A20EE011A22EE402A2A
:100AE00085ED001A85ED012A013C05F10805EFD1DD
:100AF000BDE8F08100224260FF294FF0FF02018033
:100B00000EDDB1F5806F16DB29D0B1F5805F2BD0FB
:100B1000B1F5006F46D14FF6B403C0F6000336E0DE
:100B20003F2913DC102924D020293BD14FF6D403D0
:100B3000C0F600032BE0B1F5807F1FD0B1F5007F38
:100B400030D14FF6F403C0F6000320E040291AD05C
:100B5000802927D14FF69403C0F6000317E04FF623
:100B60008403C0F6000312E04FF6E403C0F600036E
:100B70000DE04FF6A403C0F6000308E04FF6C403EF
:100B8000C0F6000303E04FF60413C0F60003191D7E
:100B900003F108020C331B88126809688381C0E9DD
:100BA0000112002250B270472DE9F0472DED028B63
:100BB00003888046084601EB830AD8F80420002108
:100BC000B1EBD30F4FEA530900F0AB80D9080AEB21
:100BD000890C00EB890E0027C4190AEB070594ED78
:100BE000000A95ED003A94ED011A95ED014A0EEBDD
:100BF00007030CEB070694ED022A95ED025A70EEFE
:100C0000035A93ED006AD6ED001AD6ED012AD6ED0F
:100C1000023AD6ED034AC4ED005A71EE045A93ED40
:100C2000017AC4ED015A72EE055AD3ED020AC4ED01
:100C3000025AD4ED035AD5ED036A31EE441A35EE6B
:100C4000A68A36EE214AD3ED037A84ED038A83ED3A
:100C5000004A37EE224A83ED014A30EEA34A83ED83
:100C6000024A37EEA44A83ED034AD31931EEC64A4D
:100C700033EEE06AD3ED000AD3ED011A30EE430AF9
:100C800032EE452A32EEC75A60EE202A61EE213A52
:100C900021EE201A20EE210A31EE400A85ED010AEC
:100CA00024EE210A25EE211A25EE205A72EEA32AFF
:100CB00024EE204A30EE450AC5ED002A86ED000AF2
:100CC00034EE010A86ED010A93ED020A93ED031A50
:100CD00035EEE63A22EE004A23EE015A23EE003AC0
:100CE00022EE012A34EEE77A33EE422A85ED032A1A
:100CF00026EE012A27EE011A27EE003A26EE000A18
:100D000034EE054A32EE432A30EE010A013907F18A
:100D1000100785ED024A86ED022A86ED030A7FF46C
:100D20005BAF4946022300F0CDFCD8F804205046C2
:100D300049460223BDEC028BBDE8F04700F0C2BC7F
:100D40002DE9F04F81B02DED088B8EB0028803465F
:100D5000500801EB800505EB800691ED000A91ED4E
:100D6000011A96ED002A96ED013A04935B6806EBB2
:100D7000800730EE024A30EE420A31EE032A31EEAD
:100D8000431A95ED013A95ED005A0593930897EDB6
:100D9000017AD7ED000A029374EE452A72EE433AC7
:100DA00034EE054A32EE032A6FF0010334EE204A96
:100DB00032EE072A03EB920230EE036A71EE451A17
:100DC00030EE430A31EE051A81ED004A0A9181EDB9
:100DD000012A510836EE476A71EEA01A72EEE02A37
:100DE00073EEC73A30EE070A31EE601A00950196AD
:100DF00003970D91C10085ED006AC5ED011AC6ED9E
:100E0000002AC6ED013A87ED000A87ED011A0C9120
:100E100000EB40016FF007036FF003074FEA800E0D
:100E200007EBC00B07EB800A03EB001903EB810211
:100E30008C000020002500210B9100BF0A9E059B1D
:100E400007900695089406EB04080C9C311806EBF5
:100E5000040C06EB0E0491ED020A9CED022AD4ED7F
:100E6000020A30EE026AD8ED022A36EE204A34EE4B
:100E7000224A91ED031A9CED033AD4ED031AD8ED02
:100E8000033A81ED024A94ED034A31EE037A98ED7C
:100E9000035A37EE044ACDF824E034EE054A81EDDA
:100EA000034A0B9930EE420A31EE431A30EE212A02
:100EB00003EB010E32EE634A31EE602A0D9932EEF9
:100EC000225A36EE602A37EE613A30EE610A31EE90
:100ED000201A1F18581932EE622A33EE633A30EEA8
:100EE000230A002931EE621A00F0CC800A998E188C
:100EF00001EB0A0301EB0905594493ED007AD6EDA5
:100F0000010AD1ED003A77EE202AD5ED014A72EEC2
:100F1000A35A75EEA45A13ED016AD6ED001A51EDED
:100F2000016AD5ED007AC3ED005A11ED018A76EE23
:100F3000215A95ED009A35EE888A38EE098A03ED3C
:100F4000018A97ED028A97ED039A24EE08AA25EE0E
:100F500009BA25EE085A24EE094A35EE444A37EE1E
:100F6000605A84ED034A36EE614A35EE666A33EE26
:100F7000E47A36EE276A74EE070A66EE091A20EE66
:100F8000899A60EE880A26EE086A3AEE0BAA71EE9C
:100F9000E00A36EE096A84ED02AAC1ED000A01ED0D
:100FA000016A90ED046AD0ED050A62EE061A23EE9E
:100FB000208A23EE063A22EE202A33EE422A8CEDD6
:100FC000032A32EEE32A35EEE63A71EE881A33EE62
:100FD000673A32EE642A0D98CCED021A62EE461A98
:100FE00023EE066A23EE203A22EE202A31EEC33A9F
:100FF00032EE462A013886ED013A86ED002A0D9040
:101000009EED062A9EED073A0C9820EE026A61EEEC
:10101000030A21EE021A20EE030A083031EE400ADC
:1010200037EEE61ADDF824E00C9088ED030A37EE7F
:10103000440A31EE451A0B9821EE034A20EE033A9A
:1010400020EE020A36EE206A21EE021A34EE400A41
:10105000183088ED026A85ED010A31EE030A089C1A
:101060000B9085ED000A069D07980EF1080E0834D6
:1010700010350830A9F10809083AABF1080BAAF1BC
:10108000080ADBE697ED026A97ED037A64EE060A3A
:1010900065EE071A25EE065A24EE074A30EEA16ADD
:1010A00035EE444A84ED026A84ED034A90ED044A29
:1010B00090ED055A22EE046A23EE057A23EE043AF7
:1010C00022EE052A36EE074A33EE422A8CED024A1A
:1010D0008CED032A9EED062A9EED073A029D20EE36
:1010E000024A21EE035A21EE021A20EE030A0A9860
:1010F000059A34EE052A31EE400A2946042388ED8C
:10110000022A88ED030A00F0DDFA049C0098626868
:101110002946042300F0D6FA626801982946042380
:1011200000F0D0FA62680398294604230EB0BDECA3
:10113000088B01B0BDE8F04F00F0C4BA2DE9F04FC4
:1011400081B02DED048B84B00588D0F804C0D0F8B0
:1011500008806F1E0020B0EBD30F0CEB870B0297BB
:10116000CDE9005300F0E68125F0070008EB800090
:10117000039045F007009FEDBB0ADF084FEAD50951
:1011800005F007060CEB800A604600BF0B68B9F15A
:10119000000FCBF800304B68CBF804308B68CBF8ED
:1011A0000830CB68CBF80C300B69CBF810304B69AA
:1011B000CBF814308B69CBF81830CB69CBF81C30E6
:1011C00090ED006A90ED015A90ED027A90ED031ACD
:1011D00090ED042A90ED054A90ED063A00F0448126
:1011E0004FF0000EF0EE400AF0EE401AF0EE402A0A
:1011F000F0EE403AF0EE404AF0EE405AF0EE406A2F
:101200004B46F0EE407A00BF08EB0E0494ED008AE6
:1012100000EB0E0523EE089A26EE086A71EE891A95
:1012200094ED019A37EE866A65EE087A76EEA76A43
:1012300067EE087A25EE095A75EEA75A61EE087A2C
:1012400036EE055A27EE096A74EEA74A62EE087A6E
:1012500076EE866A21EE096A73EEA73A64EE087AA2
:1012600075EE865A22EE096A72EEA77AD5ED072A44
:1012700074EE864A24EE096A73EE863A23EE096A12
:1012800028EE228A77EE867A95ED086A70EE880A53
:1012900022EE898A71EE881A29EE068A94ED029A66
:1012A00070EE880A27EE097A35EE077A21EE095AA0
:1012B00076EE856A22EE095A75EE855A24EE095AB1
:1012C00074EE854A23EE095A73EE853A22EE895A66
:1012D00077EE857A95ED095A26EE098A71EE881A1D
:1012E00029EE058A94ED039A70EE880A21EE091A18
:1012F00037EE011A22EE097A76EE876A24EE097A31
:1013000075EE875A23EE097A74EE874A22EE897ABF
:1013100073EE873A26EE097A77EE877A95ED0A7AA8
:1013200025EE098A71EE881A29EE078A94ED049A4F
:1013300070EE880A22EE092A31EE022A24EE091AFA
:1013400076EE816A23EE091A75EE815A22EE891A29
:1013500074EE814A26EE091A73EE813A25EE091AD7
:1013600077EE817A95ED0B1A27EE098A71EE881ACD
:1013700029EE018A94ED059A70EE880A24EE094A56
:1013800032EE044A23EE092A76EE826A22EE892A98
:1013900075EE825A26EE092A74EE824A25EE092A53
:1013A00073EE823A27EE092A77EE827A95ED0C2ABF
:1013B00021EE098A71EE881A29EE028A94ED069AC6
:1013C00070EE880A23EE093A34EE033A22EE894A97
:1013D00076EE846A26EE094A75EE845A25EE094AAD
:1013E00074EE844A27EE094A73EE843A21EE094AE4
:1013F00037EE848A95ED0D4A62EE097A71EEA71AEE
:1014000069EE047A94ED079A70EEA70A62EE892AD3
:1014100073EE227A26EE093A76EE836A25EE093AD1
:1014200075EE835A27EE093A74EE834A21EE093AA3
:1014300073EE833A22EE093A78EE032A95ED0E3ADE
:1014400024EE098A71EE881A29EE038A70EE880A62
:10145000B9F101090EF1200E7FF4D6AE039D54467A
:10146000994614E00000000000F11C044546F0EE2F
:10147000407AF0EE406AF0EE405AF0EE404AF0EE6C
:10148000403AF0EE402AF0EE401AF0EE400A2031E9
:101490000BF1200BA6B3334695ED008A043526EEFA
:1014A000086A77EE867AB0EE456A25EE085A76EE3F
:1014B000856AB0EE475A27EE087A75EE875AB0EE85
:1014C000417A21EE081A74EE814AB0EE421A22EEF9
:1014D000082A73EE823AB0EE442A24EE084A72EEED
:1014E000842AB0EE434A94ED003A24EE089A28EE9E
:1014F000038A71EE891A70EE880A0434013BCBD15D
:1015000002F120052030C2ED007AC2ED016AC2ED81
:10151000025AC2ED034AC2ED043AC2ED052AC2EDF9
:10152000061AC2ED070A013F0AF1200A2A467FF493
:101530002DAE01E060461546019A12F0070225D053
:101540009FED280ADDF800E051F8043BBEF1000FE2
:101550004BF8043BB0EE401A13D000237746B0EEB0
:10156000401A00BF08EB0304C61896ED002A94ED5C
:10157000003A013F22EE032A31EE021A03F104037E
:10158000F0D1A5EC011A0430013ADDD1029F00210F
:10159000B1EB970F16D0B90802680CF11003CCF824
:1015A000002042680139CCF804208268CCF8082079
:1015B00000F11002C068CCF80C009C461046EBD13C
:1015C00010469C4617F0030106D000BF50F8042BCC
:1015D00001394CF8042BF9D104B0BDEC048B01B0F7
:1015E000BDE8F08F00000000B0B5054604982980E2
:1015F00008446FF0030101EB800118461C46AA6005
:10160000FEF72AFE6C60B0BDF0B590ED000A4C1EEE
:101610004FF0000CBCEB940F00F1040E3BD00127FF
:101620002646A50867F301064FF0000C042700BF0B
:101630009EED001A9EED012A9EED023AB4EE410A9B
:101640009EED034AF1EE10FABCBFB0EE410AA7F1DD
:10165000030CB4EE420AF1EE10FABCBFB0EE420A3F
:10166000A7F1020CB4EE430AF1EE10FABCBFB0EEE3
:10167000430AA7F1010CB4EE440AF1EE10FABCBF24
:10168000B0EE440ABC46013D07F104070EF1100E0E
:10169000CED100EB860E14F003000ED0404200BF06
:1016A000BEEC011AB4EE410AF1EE10FABCBFB0EE86
:1016B000410A01EB000C0130F2D382ED000AC3F8BD
:1016C00000C0F0BD2DE9F04F81B02DED108BA0B022
:1016D000DFED04CA00900430CDE902320190CDE97B
:1016E0001E1101E0F304353F1F9A4FF0000AD308A2
:1016F000DF00A7EBD200C0001D904FEAC20C03EB45
:10170000430503EB8302580106931E01019B2C0144
:101710004FEAC20EED00CDE90C0ECDE90A5600BF2E
:101720000A9D191803EB05091D9D03EB0E0003EB41
:10173000070810ED014A86469A19181903EB050BA4
:1017400013ED011A11ED012A18ED013A12ED017A9B
:1017500050ED010A59ED011A5BED012A31EE025AF2
:1017600033EE046A77EE203A71EEA24A75EE235A00
:1017700076EE246A75EEA67A43ED017A75EEE65AA6
:10178000D8ED007A9EED008A99ED00BA9BED00CA73
:10179000D3ED006A41ED015AD1ED005A92ED009A65
:1017A00090ED00AA37EE88EA7BEE0C8A36EEA5DAD9
:1017B00039EE0AFA35EE635A36EE646A7EEE684A0E
:1017C0007DEE0F9A7DEE4F3A35EE24DA35EE645A0F
:1017D0007EEE28AA02ED01DA33EEC6DA00ED015AF8
:1017E00036EE235A31EE421A33EE442A37EE603A8F
:1017F00031EEE24A37EEC86A7BEE4C0A79EEAABABD
:1018000079EEEA9A72EE441A32EE042A36EE604A13
:1018100036EE206AC3ED00BAC1ED009A82ED00DA1F
:1018200080ED005A36EEE55A39EE4A7A61EEAC1A8E
:1018300022EE2C2A24EE2C4A26EE2C6A71EE210A86
:1018400073EE022A75EE043A77EE064A31EE611A1B
:1018500033EE422A35EE443A37EE464A264674467F
:1018600070EEA45A70EEE40A31EE045A1F9A1E99E3
:1018700048ED015A73EEE25A4BED010A72EEA30AEB
:10188000204604ED015A33EE425ADDF834E0C8ED4B
:10189000005ACBED000A84ED005A0C9831EE441A40
:1018A00034460B9E924409ED011A32EE031A8A4522
:1018B000634489ED001AFFF433AF1F984028C0F04D
:1018C000D4810298009E80B205900698CDE90E4C16
:1018D000C0EBC000C000002401251097049000BF99
:1018E0000598039B044403EBC40191ED000A03EB4C
:1018F00004128DED1D0A92ED000A04EB440203EB85
:10190000C2008DED1C0A90ED000A03EB44118DED31
:101910001B0A91ED000A04EB8401C80003EBC1012E
:101920008DED1A0A91ED000A4FEAC20A4FEA021B36
:1019300003EB02128DED190A92ED000AC4EBC4020A
:101940004FEAC40CD10003EBC2028DED180A92EDF0
:10195000000A0CF104024FEA041E1A448DED170A26
:1019600092ED000A0EF104021A448DED160A92ED72
:10197000000A0AF104024FEA44191A448DED150ACF
:1019800092ED000A09F104021A448DED140A92ED59
:10199000000A043018448DED130A90ED000A0BF193
:1019A000040018448DED120A90ED000A081D184439
:1019B0000994D0ED006A0796B44608952B46DDE9F8
:1019C0000C54DDE90A76DDF810808DED110A00BFB8
:1019D00010980E990CEB05090CEB000E0CEB0400B3
:1019E0000CEB060B0CEB010A0CEB07020CEB0801ED
:1019F000DCED027A99ED028A9EED029A90ED02AA40
:101A00009BED02DA9AED02EA92ED02FAD1ED028A3A
:101A100037EE88BA39EE0ACA7DEE0E9A7FEE28AA12
:101A20007BEE29BAF0EE6C3A7CEE2ACA7BEEACDA99
:101A3000CCED02DA7BEEECBADCED03CAD9ED03DAC9
:101A4000DEED03EAD0ED03FA9BED030A9AED031AEB
:101A500092ED032A91ED033A3CEEAD4A3EEEAF5AC9
:101A600030EE016A32EE037A74EE060A75EE071A5A
:101A7000DDED1A4ADDED135A70EEA12A70EEE10A8F
:101A8000CCED032A64EEAB1A65EEA02A71EEA21A21
:101A900064EEA00A65EEAB2A70EEE20AC9ED021A06
:101AA000C9ED030A7BEE690A7CEE6A1A34EE464AF7
:101AB00035EE475A9DED1CCADDED154A30EE856ABC
:101AC00034EE617A6CEE062A24EE87BA2CEE077AA1
:101AD00024EE866A30EEC55A31EE844ADDED180AEE
:101AE000DDED111A37EE466A8BED036A20EE856A4A
:101AF00021EE847A20EE844A21EE855A37EE066A7A
:101B000034EE454A39EE4A5A3FEE687A7EEEEF1AD5
:101B100030EE410A32EE431A7BEE222A35EE472A96
:101B200035EE073A31EEC15A31EE811ACBED022A79
:101B30008AED026A8AED034A37EEC84A3DEE4E6AE4
:101B40007CEEED0A22EE232A23EE233A25EE235AD9
:101B500021EE231AF0EE63CA34EE027A76EE031A0F
:101B600070EE852A70EE017ADDED1D3ADDED164A44
:101B700037EE278A32EEE19A23EE88AA24EE89BA5C
:101B800023EE899ADDED173A37EE677A71EEA21AE5
:101B900063EE872A66EEA17A63EEA11A26EE877AB3
:101BA00024EE888A31EEC77A34EE422A36EE433A82
:101BB00030EEC54A30EE410ADDED190ADDED121AAC
:101BC00039EE488A32EE001A34EE435A8EED038A1B
:101BD00081ED037A20EE816A21EE857A20EE855A26
:101BE00021EE811A3AEE0BAA72EEA72A36EE076AA8
:101BF00035EE411A8EED02AAC1ED022A80ED026A8D
:101C000080ED031A1F9833EE041A03441E989DEDCD
:101C10001B4A9DED145A32EE400A83420F9824EE7F
:101C2000002A25EE013A24EE011A25EE000A32EED2
:101C3000032A31EE400A844482ED022A82ED030A2F
:101C4000FFF4C6AE089D0698079E0135099C8542A3
:101C500006F10806FFF444AE0298C00002901F98F7
:101C60003F2806981F903FF63FAD20B0BDEC108B8B
:101C700001B0BDE8F08F10B578B14FF400710446A3
:101C8000FEF738FF50B94FF4806020824FF6940081
:101C9000C0F601006061002000E0FF2040B210BDEE
:101CA00010B568B140210446FEF724FF48B98020F2
:101CB000208240F69400C0F602006061002000E03F
:101CC000FF2040B210BD10B578B14FF480610446DA
:101CD000FEF710FF50B94FF40060208240F69420C8
:101CE000C0F602006061002000E0FF2040B210BD9D
:101CF00010B570B180210446FEF7FCFE50B94FF4D8
:101D00008070208242F69420C0F6020060610020BC
:101D100000E0FF2040B210BD10B568B110210446AC
:101D2000FEF7E8FE48B92020208242F69460C0F613
:101D300002006061002000E0FF2040B210BD10B53D
:101D400078B14FF400610446FEF7D4FE50B94FF469
:101D50008050208242F61470C0F6020060610020BC
:101D600000E0FF2040B210BD10B578B14FF4807193
:101D70000446FEF7BFFE50B94FF40070208246F6CD
:101D80001470C0F602006061002000E0FF2040B245
:101D900010BD10B568B120210446FEF7ABFE48B96E
:101DA0004020208247F21470C0F6020060610020DB
:101DB00000E0FF2040B210BDF0B581B014460E46E1
:101DC000054673B12846314622461F4600F060F8AA
:101DD000284621463A46012301B0BDE8F040FEF70F
:101DE00019BE2846314600220123FEF713FE28467D
:101DF0003146224601B0BDE8F04000F0A3B8B1F58D
:101E0000007F0ADA7F2916DC202929D040293BD11E
:101E100041F69351C0F600010847B1F5006F14DA9E
:101E2000B1F5007F21D0B1F5806F2DD141F677411A
:101E3000C0F60001084780291CD0B1F5807F23D16E
:101E400041F6F141C0F600010847B1F5805F16D0B8
:101E5000B1F5006F18D141F6C741C0F6000108473F
:101E600041F61951C0F60001084741F66951C0F624
:101E70000001084741F6A141C0F60001084741F6BC
:101E80003F51C0F6000108474FF0FF307047000097
:101E900080B591ED001A91ED012AD0F814E0008888
:101EA00031EE023AB6EE000A31EE421AB0F1010C00
:101EB00023EE003A21EE001A82ED003A82ED011A7B
:101EC00008BF80BD01F1080301EBCC010EF1080051
:101ED0000832043111ED011A91ED002A93ED003A18
:101EE00093ED014A90ED005A90ED016A33EE417A8C
:101EF00072EE040A67EE051A60EE862A27EE066A7D
:101F000031EE031A34EE422A25EE205A31EE611AE0
:101F100032EE062A31EE621A32EE452A21EE001A1E
:101F200022EE002A82ED001A82ED012ABCF1010C9A
:101F300003F1080300F1080002F10802A1F1080111
:101F4000C8D180BD91ED000A91ED011A0388406966
:101F500030EE002A31EE011AA3F1010C32EE013A03
:101F6000B6EE000A32EE411A23EE003A21EE001AD4
:101F700000F1080301F1080001EBCC0182ED003A09
:101F800082ED011A0832043111ED011A90ED003A88
:101F900091ED002A90ED014A93ED005A93ED016A0C
:101FA00031EE437A72EE040A67EE051A27EE067ADE
:101FB00031EE031A34EE422A25EE205A20EE866ACC
:101FC00031EE211A32EE072A31EE061A32EE452A98
:101FD00021EE001A22EE002A82ED001A82ED012A7B
:101FE000BCF1010C03F1080300F1080002F1080242
:101FF000A1F10801C8D170472DE9F04100272DED6E
:10200000028B044686B03E46B84639461E2000F094
:102010000DF900211F2000F009F90021202000F017
:1020200005F9002532E06946322000F0BFF801A929
:10203000332000F0BBF802A9342000F0B7F803A960
:10204000352000F0B3F804A9362000F0AFF805A958
:10205000372000F0ABF89DF800009DF804109DF8C3
:102060000C2040EA01219DF808009DF8143040EA58
:1020700002209DF81020304442EA032206B239447F
:1020800008EB02000FB20FFA80F86D1CA542CADB04
:1020900097FBF4F096FBF4F10FB298FBF4F100B269
:1020A0000EB24042FEF795FA9FED178B53EC182BBA
:1020B000FEF720FAFEF7ABFA05467842FEF789FAFA
:1020C00053EC182BFEF716FAFEF7A1FA0446C6F5F4
:1020D0000070FEF77EFA53EC182BFEF70BFAFEF7B2
:1020E00096FA0646E9B21E2000F0A0F8E1B21F20E1
:1020F00000F09CF8F1B2202000F098F806B0BDEC9A
:10210000028BBDE8F08100000000000000400F409D
:1021100010B54FF47A7408E000F0C6FA014613A037
:1021200007F0DEFA204600F097FC00F0BDFAE52843
:10213000F2D100212E2000F079F80B21312000F09F
:1021400075F81F212C2000F071F808212D2000F0D7
:102150006DF814212E2000F069F800F0A5FA014670
:10216000BDE8104007A007F0BBBA00004144584C3E
:1021700033343520496E6974204661696C3A25789C
:102180000D0A00004144584C33343520496E6974BF
:1021900020537563636573730D0A54686520494461
:1021A0002069732025780D0A0000000073B50F4DDB
:1021B0009DF800000C4600F03F0040F080008DF8D4
:1021C000000000221021284600F05DFD0122694632
:1021D000074801F0F7FB01222146054801F0F4FA17
:1021E00001221021284600F04EFD7CBD0000024077
:1021F000CC00002010B50C4C207828B100F022F95A
:1022000060800020207010BD00F01CF9B4F90210AD
:10221000401A0528F7DD4FF41670FFF7EDFE00F0C9
:1022200011F9608010BD00003C00002013B50E4C79
:102230009DF80000002200F03F008DF80000102102
:10224000204600F020FD01226946084801F0BAFB53
:10225000012201A9054801F0B5FB01221021204609
:1022600000F011FD1CBD000000000240CC00002069
:102270001CB569463220FFF799FF01A93320FFF70B
:1022800095FF9DF800009DF8041000EB012000B2BE
:102290001CBD1CB569463420FFF788FF01A9352015
:1022A000FFF784FF9DF800009DF8041000EB01206B
:1022B00000B21CBD1CB569463620FFF777FF01A9A7
:1022C0003720FFF773FF9DF800009DF8041000EB26
:1022D000012000B21CBDFEE710B50D4C206808B906
:1022E00004F064FB02F0E2F938B102F049FD014666
:1022F000074802F03BFE04F06DFB94F8360010B185
:10230000034802F0ACFBBDE8104004F063BB0000E2
:1023100000080020014800F02DBA00002401002030
:10232000014800F027BA000074020020014800F0C4
:1023300021BA000084010020014800F01BBA00000F
:10234000D402002001681823CAB2103AB2FBF3F29B
:10235000054B6FF30901032A9B5CC36500D9091D76
:1023600081650846704700001497000810B50146C3
:1023700000208B698A6A4FF0C07453B1B3F5005FD7
:1023800015D072B1012A0CD0022A0AD0032A09D131
:1023900004E01AB1012A06D0022A03D1C96AC90190
:1023A00000D5012010BDC96AA142FAD010BD002A93
:1023B000F7D0012AF2D0022AF3D0032AF3D010BDBD
:1023C00030B50468256825F48025256004686360BD
:1023D0008368402B036803D099600068C26030BDF9
:1023E0009A600068C16030BD70B5002400F05AF8F2
:1023F000134D04E0641CE4B2012007F009F9102138
:10240000284600F033FC10B1C82CF3D301E0C82CEF
:1024100001D3012070BD002404E0641CE4B201205B
:1024200007F0F6F81021284600F020FC18B1F02C37
:1024300004D3022070BDF02CEFD3FAE7002070BD6A
:102440000004024010B500F0B1F800F095F8FFF775
:10245000CBFFCC2000F0B8F8BE2000F0B5F800F0BB
:102460007BF8044600F078F8702805D9C043E143B2
:10247000CCB2C0B2002100E0012104EB002000B288
:1024800000EE100AF6EE040A0029B8EEC00A20EEAB
:10249000200ABDEEC00A10EE100A00B201D140427F
:1024A00000B210BD00B585B0102000900020019052
:1024B0006946024800F0E2FA05B000BD000402409F
:1024C00000B585B0102000900120019002200390FB
:1024D0006946024800F0D2FA05B000BD000402408F
:1024E00000B585B0102000900120019002900220DC
:1024F00003906946044800F0C1FA00F03DF8FFF788
:1025000073FF05B000BD00000004024010B5FFF7E6
:10251000D7FF104C00221021204600F0B4FB02200F
:1025200007F076F801221021204600F0ACFBFFF7FF
:10253000B9FF022007F06CF81021204600F096FB4E
:1025400008B1012400E00024322007F061F82046A1
:1025500010BD00000004024070B500255FF00104CA
:10256000FFF7D4FFC001641C40EA5500E4B2C5B2D5
:10257000082CF5D9284670BD10B5FFF7A1FF0A4C0D
:1025800000221021204600F07EFB40F2EE2007F0F2
:102590003FF801221021204600F075FBBDE81040F5
:1025A0000F2007F035B800000004024010B5FFF717
:1025B000E3FFFFF719FFCC2000F006F8BDE810405C
:1025C000442000F001B8000070B50546FFF778FF21
:1025D000144E012415F0010F4FEA55054FF000028B
:1025E0004FF0100130460BD000F04DFB022007F0F9
:1025F0000FF801221021304600F045FB3C200AE094
:1026000000F041FB3C2007F003F801221021304686
:1026100000F039FB022006F0FBFF641CE4B2082C3A
:10262000D8D970BD000402407047000008B51548B5
:10263000402300901A460021202004F04DFC9620F3
:1026400000F00AFA40231A460021202004F01CFA68
:1026500004F0DAFD06230CA23821002004F0A0FCCF
:1026600004F0D2FD02F022F80028FBD003F070FB4A
:1026700004F0CAFD04F09AF9BDE80840084802F0E9
:10268000EEB9000030A00008707265737320616EAF
:1026900079206B657920746F20656E7465722E00E9
:1026A0000008002072B6FEE708B500208DF8000093
:1026B0006946FFF77BFD9DF8000008BD2DE9F0415C
:1026C0000446876D00F0E4FA064694F835000025CC
:1026D000022806D08020606584F834500120BDE8CF
:1026E000F0812068016821F01601016020684169CD
:1026F00021F080014161206C08B9A06C20B12068F4
:10270000016821F0080101602068016821F00101E1
:1027100001600CE000F0BCFA801B052807D92020DE
:102720006065032084F8350084F83450D7E72068CA
:102730000068C007EED194F85C103F208840B86074
:10274000012084F8350084F834500020C7E790F861
:102750003510022903D080214165012070470521F1
:1027600080F835100068016821F001010160002047
:10277000704700002DE9F84304464FF00009CDF8FA
:10278000009063484FF41651A56D0068B0FBF1F757
:102790002E6894F85C10082000FA01F131420FD045
:1027A00021680A6852070BD50A6822F004020A6001
:1027B00094F85C108840A860606D40F0010060658E
:1027C00094F85C104FF0010808FA01F0304208D08C
:1027D00021684969090604D5A860606D40F00200CF
:1027E000606594F85C1004208840304208D021686D
:1027F0000968890704D5A860606D40F00400606531
:1028000094F85C1010208840304218D02168096884
:10281000090714D5A86020680168490304D5006839
:10282000000308D5A16C07E00168C90503D401685D
:1028300021F008010160216C09B12046884794F815
:102840005C1020208840304231D021680968C906D8
:102850002DD5A86094F8350005282068016806D0B9
:10286000490347D5006800031DD4616C1CE021F0CA
:10287000160101602068416921F080014161206CEE
:1028800008B9A06C20B12068016821F0080101603E
:1028900094F85C103F208840A86084F8358084F864
:1028A0003490216D1FE0E16B09B120468847606DCF
:1028B00000282BD0606DC00714D0052084F83500A7
:1028C0002068016821F0010101600098401C00901F
:1028D000B84203D820680068C007F6D184F8358074
:1028E00084F83490E16C002910D001B02046BDE896
:1028F000F04308470168C905D5D4016821F01001EB
:10290000016084F8358084F83490CCE7BDE8F88322
:102910001C0000202DE9F041044600F0B9F90646FC
:102920005CB1022084F83500002584F8345020681A
:10293000016821F0010101600DE00120BDE8F08196
:1029400000F0A6F9801B052805D92020606503202A
:1029500084F83500F2E720680068C007F0D12268EB
:10296000116820480140D4E901031843D4E9033633
:102970003343184363691843A3691843E369184351
:10298000236A18430843616A042903D1D4E90B136D
:1029900019430843106020684069666A20F0070107
:1029A00030460E43012704280CD1A06A0643E06A92
:1029B00040B12046FFF7DAFC20B14020606584F882
:1029C0003570BAE7206846612046FFF7BBFC94F8F3
:1029D0005C203F2191408160656584F8357000205E
:1029E000ACE700003F8010F02DE9F0410446866D11
:1029F00090F83400002501280DD0012084F834001F
:102A000094F835700020012F07D084F83400022597
:102A10002846BDE8F0810220FBE7022784F83570E4
:102A200060652046FFF7CCFC94F85C103F2088409E
:102A3000B0602068016841F016010160206C20B18F
:102A40002068016841F0080101602068016841F0D8
:102A500001010160DCE7000070B5044600F018F9E0
:102A60000546601C02D004480078044400F010F9C8
:102A7000401BA042FAD370BD100000202DE9F84F92
:102A8000DFF8BCA10022012503264FF00F090AF14F
:102A9000040BAAF1040E00BF0B6805FA02F42340F0
:102AA000A34270D10F7907F00307012F01D0022F45
:102AB00016D187684FEA420806FA08FC27EA0C0795
:102AC000D1F80CC00CFA08FC4CEA070CC0F808C09E
:102AD0004768A7430C79C4F3001494403C43446016
:102AE0000C79E443A4070AD0C4684FEA420C06FA02
:102AF0000CF7BC438F6807FA0CF72743C7600C79C3
:102B000004F00304022C12D1D40800EB840CDCF88E
:102B100020405707FF0E09FA07F824EA0804D1F805
:102B2000108008FA07F848EA0408CCF82080046806
:102B30004FEA420C06FA0CF7BC430F7907F0030783
:102B400007FA0CF7274307604C6814F4403F70D035
:102B50003C4C276847F480472760246822F003072D
:102B600004F480440094384C07EB040CDCF808486B
:102B700097074FEA177809FA08F7BC43334FB84272
:102B800002D1002724E054E0314FB84201D101279F
:102B90001EE0304FB84201D1022719E02E4FB84253
:102BA00001D1032714E02D4FB84201D104270FE0D3
:102BB0002B4FB84201D105270AE02A4FB84201D174
:102BC000062705E0284FB84201D1072700E0082773
:102BD00007FA08F72743CCF80878DAF80040574698
:102BE000D1F804C09C435FEACC2C00D51C433C6068
:102BF000DBF800405F46D1F804C09C435FEA8C2CB0
:102C000000D51C433C60DEF800407746D1F804C094
:102C10009C435FEA8C3C00D51C433C60084F083F56
:102C20003C68D1F804C09C435FEACC3C00D51C430F
:102C30003C60521C102AFFF42FAFBDE8F88F000053
:102C4000083C01404438024000300140000002408E
:102C50000004024000080240000C02400010024044
:102C60000014024000180240001C024000690840A5
:102C700000D001207047426921EA02030A4043EA7A
:102C80000241816170470AB1816170470904FBE725
:102C900001488068704700001000002070B50400F3
:102CA00025D094F83D00002520B984F83C502046FA
:102CB00000F050F9242084F83D002068016821F0DC
:102CC000010101602068016841F400410160206851
:102CD000016821F40041016000F0A4FA4D4A6168E6
:102CE000914201D84C4900E04C49884201D2012070
:102CF00070BD4B492368B0FBF1F15E6826F03F06DA
:102D00000E435E606368934206D94FF4967359434D
:102D10004FF47A73B1FBF3F12368491C1E6A26F065
:102D20003F06314319626168914210D84900401E44
:102D3000B0FBF1F2521CC2F30B02042A01D20420B0
:102D400022E0B0FBF1F0401CC0F30B001CE0A268D5
:102D5000F2B301EBC10303EB0116431EB3FBF6F321
:102D60005B1C43F480431B0549D092B301EBC102C5
:102D700002EB0111401EB0FBF1F0401CC0F30B0050
:102D800040F4804040F400402168CA694CF6FF736B
:102D90009A431043C861D4E90710014320680268D0
:102DA00022F0C00211430160D4E90301014320680D
:102DB000826848F2FF339A4311438160D4E90501E8
:102DC00008432168CA6822F0FF021043C86001E08E
:102DD0000EE016E02068016841F001010160256401
:102DE000202084F83D00256384F83E50002070BD0B
:102DF00001EB4106431EB3FBF6F35B1CB3E7012076
:102E0000C2E701EB4101401EB0FBF1F0401CC0F3F2
:102E10000B00B7E7A086010080841E0000093D007A
:102E200040420F002DE9FF4F83B09A46DDE911972C
:102E300093460446DDF84080FFF72AFF054694F8E4
:102E40003D0020287FD119230122404920460095CA
:102E500001F05AFB002876D194F83C00012872D08A
:102E6000012084F83C0020680168C90703D101688B
:102E700041F0010101602068016821F400610160F6
:102E8000212084F83D00402084F83E00002626647E
:102E9000C4F82480A4F82A90608D20852C48E06234
:102EA000CDE9007553465A462046049901F0ACFA24
:102EB00070B930E02A463946204601F0CBFB58B1C4
:102EC000206C042804D12068016841F4007101607D
:102ED000012007B0BDE8F08F606A216800780861C2
:102EE000606A401C6062218D491E89B22185628D15
:102EF000521E628522685369DB435B070BD469B1BC
:102F000000781061606A401C6062208D401E208540
:102F1000608D401E6085208D0028CBD12A46394621
:102F2000204601F0C5FA0028CAD154F83D0B0168CB
:102F300041F400710160202004F81E09E6776677ED
:102F40000020C6E7FFE70220C3E7000002001000F0
:102F50000000FFFF10B586B0044614216846FDF757
:102F60007BF913492068884220D112480021026869
:102F700042F002020260006800F002000590C020EA
:102F800000901220CDE90101032003900420049059
:102F900069460948FFF772FD06481030016841F4A0
:102FA00000110160006800F40010059006B010BD2B
:102FB000005400403038024000040240024881685A
:102FC0000278114481607047100000200B4810B552
:102FD000016841F400710160016841F480610160A1
:102FE000016841F480710160032000F06FF80F2048
:102FF00000F006F800F024F8002010BD003C02406C
:1030000070B50D4D04464FF47A712878B1FBF0F09D
:103010000A490968B1FBF0F000F04AFD48B9102CEC
:1030200007D200222146501E00F030F800206C60CC
:1030300070BD012070BD0000100000201C000020A9
:103040000A4808B5016841F480410160006800F455
:10305000804000900548001F016841F080510160E8
:10306000006800F08050009008BD00004438024025
:10307000002809DB00F01F02012191404009800077
:1030800000F1E020C0F8001170470000F0B40E4BD2
:103090001B680C46C3F30223C3F10705042D00D9B6
:1030A0000425191D072901D2002300E0DB1E01269B
:1030B00006FA05F1491E214099409E40761E1640B1
:1030C0003143F0BC05F01AB80CED00E0064900F001
:1030D000070208684FF6FF03184040EA0220034A3F
:1030E00010430860704700000CED00E00000FA0596
:1030F0002DE9F0470E46050065D0DFF81481D8F8B9
:103100000000F7B200F00700B04207D288F8007064
:10311000D8F8000000F00700B04254D128683D4CB8
:10312000810712D5400703D5206840F4E0502060A5
:103130002878000703D5206840F4604020602068AC
:10314000A96820F0F000084320602878C0072DD03F
:10315000304968680839012812D0022813D00328A2
:1031600011D00968890700292DDA216821F00301AF
:1031700001432160FFF78CFD814641F2883A0EE061
:1031800009688903EFE709688901ECE7FFF780FD2B
:10319000A0EB0901514502D90320BDE8F087206862
:1031A000696800F00C00B0EB810FEFD1D8F8001087
:1031B000404601F00701B14207D90770006800F0EE
:1031C0000700B04201D00120E7E72878400705D585
:1031D0002068E96820F4E050084320602878000760
:1031E00006D52068296920F4604040EAC1002060CB
:1031F00000F038F82168084AC1F30311515CC84057
:103200000649086006480068FFF7FAFE0020C4E798
:10321000003C0240083802401C9700081C000020B7
:10322000140000200448054900680968044AC1F3F5
:103230008221515CC84070471C00002008380240C1
:103240002C9700080448054900680968044AC1F33E
:103250004231515CC84070471C00002008380240D1
:103260002C970008154810B5006810F00C0214489F
:1032700013D04110042A0FD0082A0ED10F4C241F5E
:103280002268236802F03F025B0207D52068C0F382
:103290008810A0FB010106E0084610BD2168C1F3BB
:1032A0008811A1FB00010023FCF78CFF2168C1F30A
:1032B0000141491C4900B0FBF1F010BD0838024043
:1032C0000024F4002DE9F84F04006ED02078DFF8D8
:1032D0004C93C007A9F104054AD009F10400016824
:1032E000C1F38101012908D00068C0F381000228E0
:1032F0000AD1D9F80000400206D52868800337D5E6
:1033000060680028E1D033E06068B0F5803F10D0FD
:10331000B0F5A02F286810D020F4803028602868ED
:1033200020F4802028606068A8B1FFF7B1FC064651
:103330000DE0286840F48030F4E740F480202860F5
:10334000F7E700BFFFF7A4FC801B642873D8286848
:103350008003F7D50CE0FFF79BFC064605E000BFB5
:10336000FFF796FC801B6428F0D828688003F7D408
:103370002078DFF8AC8280074FF0000A3ED5A748DE
:10338000001D016811F00C0F08D00068C0F3810027
:1033900002280BD1D9F80000400207D42868800722
:1033A00016D5E068012800D112E033E1E068B8B139
:1033B0000120C8F80000FFF76BFC064605E000BFDF
:1033C000FFF766FC801B0228C0D828688007F7D565
:1033D0002868216920F0F80040EAC10028600DE06B
:1033E000C8F800A0FFF754FC064604E0FFF750FCC5
:1033F000801B02281FD828688007F7D42078000790
:1034000022D5864F87486169703771B1012101600B
:10341000FFF73EFC064604E0FFF73AFC801B02285B
:1034200009D838688007F7D50EE0C0F800A0FFF78C
:103430002FFC064605E082E0FFF72AFC801B0228ED
:103440007DD838688007F7D42078400768D5DFF842
:10345000CCB100270BF13C0BDBF80000C0000BD413
:10346000DBF8001041F08051CBF80010DBF80000D1
:10347000012700F0805000906B4E3068C00510D4DA
:10348000306840F480703060FFF702FC009005E087
:10349000FFF7FEFB0099401A022850D83068C0059B
:1034A000F6D55E4EA0686C3601280FD0052830682E
:1034B00010D020F001003060306820F0040030604F
:1034C000A068B8B1FFF7E4FB00900FE0306840F06F
:1034D0000100F4E740F004003060F7E7FFF7D8FBA5
:1034E0000099411A41F28830814266D830688007DD
:1034F000F4D50EE0FFF7CCFB009007E0FFF7C8FB28
:103500000099411A41F28830814256D830688007CC
:10351000F4D42FB1DBF8001021F08051CBF800106B
:10352000A069C8B33D49091D0968C1F38101022999
:103530004AD00228504607D0C8F8600000E03CE0BE
:10354000FFF7A6FB04463BE04746C8F86000FFF7DC
:103550009FFB064605E000BFFFF79AFB801B022891
:103560002BD828688001F7D4D4E907010843A16A61
:103570002E4A490802EB0141626A41EA821108437E
:1035800094F82C1040EA0161C9F800100120386657
:10359000FFF77EFB044606E03EE000BFFFF778FB46
:1035A000001B022809D828688001F7D534E000BF45
:1035B000FFF76EFB001B022802D90320BDE8F88F3D
:1035C00028688001F4D427E00128F7D0D9F800005A
:1035D000E26900F4800191421CD1226A00F03F01AF
:1035E000914217D147F6C071626A0140B1EB821F68
:1035F00010D1A26A4FF0FF3300F4403103EB5202C6
:10360000B1EB024F06D194F82C1000F07060B0EBD3
:10361000016F01D00120D1E70020CFE7043802403C
:1036200000004742800E4742007000400000FFFF4C
:10363000704770B5040009D0606A002540B125616B
:103640006561A56294F8510040B10CE0012070BDA5
:103650006068B0F5827FF4D0E561F2E784F85050FD
:10366000204600F045F8022084F8510020680168E7
:1036700021F040010160A088218900F4827001F4EA
:1036800004410843A18901F400610843217C01F051
:1036900002010843217D01F001010843218B01F45F
:1036A00000710843217F01F03801084394F820108D
:1036B00001F080010843218D01F400510843216885
:1036C0000860A069042101EA104094F8241001F078
:1036D00010010843216848602068C16921F4006135
:1036E000C1616565012084F85100002070BD0000B3
:1036F0002DE9F04387B0064614216846FCF7ACFD7F
:103700002C493068884252D12B480024016841F48A
:1037100080510160006800F48050059026481438FC
:10372000016841F0010101600068694600F0010094
:103730000590E02000900220CDE9010403200390D1
:10374000052004901D48FFF799F91E4D1C484FF0C5
:10375000C0672860C5E901744FF48068C5E9034873
:103760006C614FF44039AC61C5E9074928466C6289
:10377000FFF7D0F808B1FEF795FFF564AE63114D81
:103780000F4860354830E5E802074020A5E8110100
:103790000C4845F814496030AC61C5E907496C62D2
:1037A000FFF7B8F808B1FEF77DFFB564AE6307B068
:1037B000BDE8F08300300140443802400000024080
:1037C000106402402401002070B5044690F85100B6
:1037D00001282AD121B11AB1A068042310B105E053
:1037E000012070BD6568B5F5827F15D094F8505002
:1037F000012D1AD0012584F8505084F8513000254D
:103800006565A163A287E28725646564A586E58670
:10381000B0F5004F0BD014E084F851302046BDE8DD
:10382000704013460A4600F045B8022070BD20687B
:10383000016821F0400101602068016821F48041A5
:103840000160E16C17480864E16C1748C863E16CDB
:103850001648C864E06C0565E38F2168A26B0C31E3
:10386000E06CFFF7C1F830B1606D40F010006065AA
:1038700084F85050B4E720680168490603D4016811
:1038800041F04001016084F850502068416841F0E7
:10389000200141602068416841F001014160002041
:1038A00070BD000087730008A573000865730008E9
:1038B0007047704770B5044690F85100656801285C
:1038C00006D0B5F5827F3AD1A568A5BB042836D1CC
:1038D00091B38AB383B394F8500001282FD001200C
:1038E00084F8500094F85100042802D0052084F890
:1038F0005100002565652163A386E386A263A38743
:10390000E3872564656494F85100042819D0E16CBC
:10391000274808642748E16CC863E16C2648C864FE
:10392000E06C0565E38F2168A26B0C31E06CFFF75A
:103930005BF800BB0AE002E0FFE7012070BD022057
:1039400070BDE16C1D4808641D48E4E720684168CB
:1039500041F001014160A06C0564A06CC563A06CDE
:10396000C564A06C0565E38E2268216B0C32A06CE7
:10397000FFF73AF830B1606D40F01000606584F8F0
:103980005050DAE720680168490603D4016841F025
:103990004001016084F850502068416841F02001E6
:1039A00041602068416841F002014160002070BD23
:1039B0009B73000873740008657300088773000820
:1039C000A573000870B5044690F8510001281CD179
:1039D000C9B1C2B194F85000012816D0012084F872
:1039E0005000032084F85100002565652163A286FC
:1039F000E286A56365642564A587E587A068B0F5C0
:103A0000004F04D00DE0012070BD022070BD206881
:103A1000016821F0400101602068016841F48041A3
:103A20000160A16C17480864A16C1748C863A16CB9
:103A30001648C864A06C0565E38E2268216B0C32C1
:103A4000A06CFEF7D1FF30B1606D40F010006065F2
:103A500084F85050D7E720680168490603D401680C
:103A600041F04001016084F850502068416841F005
:103A7000200141602068416841F00201416000205E
:103A800070BD0000917300080F7400086573000892
:103A900070477047704770474FF0E021042808696D
:103AA00003D020F004000861704740F00400FAE7FA
:103AB00010B5401EB0F1807F01D3012010BD4FF042
:103AC000E02460610F21601704F018FB0020A06162
:103AD00007202061002010BD7047704770B590F836
:103AE0003C20012A32D0012480F83C40022280F898
:103AF0003D2003685A689D6822F070060A683243C8
:103B00005A60134B02689A4214D0B2F1804F11D020
:103B1000104B9A420ED0104B9A420BD00F4B9A4248
:103B200008D00F4B9A4205D00E4B9A4202D00E4B52
:103B30009A4204D1496825F080031943916080F8C6
:103B40003D40002180F83C10084670BD022070BD49
:103B5000000001400004004000080040000C00404C
:103B600000040140004001400018004010B504006E
:103B700003D094F83D0010B107E0012010BD0020F3
:103B800084F83C00204600F01FF8022084F83D0035
:103B9000211D206803F0ECFD012084F8460084F824
:103BA0003E0084F83F0084F8400084F8410084F827
:103BB000420084F8430084F8440084F8450084F807
:103BC0003D00002010BD000008B50068B0F1804F36
:103BD00012D10A48016841F0010101600068002229
:103BE00000F00100009011461C20FFF74FFABDE8DD
:103BF00008401C20FFF73CBA08BD000040380240D6
:103C000090F83D10012901D001207047022180F871
:103C10003D100168CA6842F00102CA60006811499B
:103C2000884214D0B0F1804F11D00F4988420ED095
:103C30000E4988420BD00E49884208D00D4988426F
:103C400005D00D49884202D00C49884204D18168D0
:103C500001F00701062903D0016841F0010101606C
:103C600000207047000001400004004000080040B0
:103C7000000C0040000401400040014000180040DA
:103C800070B5044690F83C000025012817D00126A5
:103C900084F83C60022084F83D002068826822F0AD
:103CA000770222F47F4282600868502838D00DDC09
:103CB00020284FD005DC90B3102811D14AE0022013
:103CC00070BD302846D040280AD13BE060282FD074
:103CD00070280DD0B0F5805F03D0B0F5005F12D032
:103CE000012584F83D60002084F83C00284670BD22
:103CF000CB68D1E90121206803F0A2FD206881682A
:103D000041F0770109E0CB68D1E90121206803F097
:103D100097FD2068816841F480418160E1E719E006
:103D2000CA684968206803F09DFD5021206806E0BC
:103D3000CA684968206803F0A6FD6021206803F086
:103D400089FDCEE7CA684968206803F08BFD4021F1
:103D50002068F4E7226801461046F0E770472DE935
:103D6000F04104460068C66805694FF00007A907DE
:103D700013D5B10711D5F91E016101202077206804
:103D800080698007204602D0FFF7E8FF04E000F0DA
:103D90007EF8204600F07CF82777680716D5700774
:103DA00014D521686FF00400086102202077206894
:103DB000806910F4407F204602D0FFF7CFFF04E077
:103DC00000F065F8204600F063F82777280715D53E
:103DD000300713D521686FF00800086104202077B0
:103DE0002068C0698007204602D0FFF7B7FF04E0D3
:103DF00000F04DF8204600F04BF82777E80616D57E
:103E0000F00614D521686FF01000086108202077B3
:103E10002068C06910F4407F204602D0FFF79EFF63
:103E200004E000F034F8204600F032F82777E80785
:103E300008D0F00706D021686FF001000861204625
:103E400000F028F8280608D5300606D521686FF05E
:103E5000800008612046FFF73FFE680608D570061F
:103E600006D521686FF040000861204600F034F864
:103E7000A8060AD5B00608D521686FF020000861B1
:103E80002046BDE8F041FFF728BEBDE8F08170474D
:103E90007047000070B50068B0F1804F19D100F094
:103EA00035FC0C4C00252068401C2060B0F5FA7FE2
:103EB00005D9022104F1080000F04DFC256060687E
:103EC00041F28831401C6060884202D9FEF792F9C5
:103ED000656070BD000000207047704770470000AB
:103EE000F8B5016804460868CA684B6910F00F0FFE
:103EF0004FF0000559D003F0010602F490773743E4
:103F000065D0C10705D0D10503D5616C41F0010131
:103F10006164410705D5D90703D0616C41F0020106
:103F20006164810705D5D90703D0616C41F00401B4
:103F30006164010707D502F02001314303D0616CB1
:103F400041F008016164616C00293AD0800604D513
:103F5000900602D5204603F026FF20684069616C78
:103F6000C0F38010090700D460B3204603F0E6FEDA
:103F700020684069400621D52068143050E8001FB1
:103F800021F0400140E80012002AF5D1E06BA8B111
:103F900072490165E06BFEF7DAFB002811D0E06B97
:103FA000016D01B0BDE8F040084783060FD59306C8
:103FB0000DD52046BDE8F84003F0F5BE2046FFF7DA
:103FC0008DFFF8BD2046FFF789FF6564F8BD266BBD
:103FD0002023012E7ED1C6067CD5D6067AD5086868
:103FE0004868009048694FF0020640064DD5E26BE4
:103FF000106840684FF480770004000C3AD0A18D1F
:10400000814237D9E085D069B8422DD020680C3084
:1040100050E8001F21F4807140E80012002AF5D119
:104020002068143050E8001F21F0010140E8001220
:10403000002AF5D12068143050E8001F21F040011B
:1040400040E80012002AF5D184F842302563206848
:104050000C3050E8001F21F0100140E80012002A47
:10406000F5D1E06BFEF72AFB6663A08DE18D401A67
:1040700081B206E0A18D8142A8D1D069B842A5D114
:1040800066632046FFF729FFF8BDA08DE18D401A39
:1040900081B2E08D0028F7D00029F5D020680C30DF
:1040A00050E8002F22F4907240E80027002FF5D14D
:1040B0002068143050E8002F22F0010240E8002769
:1040C000002FF5D184F84230256320680C3050E889
:1040D000002F00E006E022F0100240E80023002B51
:1040E000F3D1CDE705062BD5150629D594F8410067
:1040F0002128C9D1A068B0F5805F01D12069B0B195
:10410000206A411C2162216800784860E08C401ED2
:104110000004000CE084B7D12068C16821F0800160
:10412000C1602068C16841F04001C160F8BD206AEB
:104130000088C0F308004860206A801C2062E5E720
:104140004006F3D55006F1D5CA68204622F0400259
:10415000CA6084F8413000F03DF9F8BD997C000850
:1041600070B5040004D094F84100002510B106E0B9
:10417000012070BD84F84050204600F023F8242030
:1041800084F841002068C16821F40051C1602046D4
:1041900003F06AFE2068016921F490410161206802
:1041A000416921F02A0141612068C16841F4005150
:1041B000C1606564202084F8410084F84200656392
:1041C000002070BD2DE9F04186B0064614216846F6
:1041D000FCF742F830493068884259D12F48002412
:1041E000016841F010010160006800F010000590C6
:1041F0002A481438016841F00101016000686946ED
:1042000000F0010005904FF4C06000900220CDE95D
:10421000010403200390072004902148FEF72EFCA0
:10422000214D20484FF000672860C5E901744FF424
:104230008068C5E903486C61AC61EC612C6228467A
:104240006C62FEF767FB08B1FEF72CFAF563AE630C
:10425000154D144860357830E5E802074020A5E8A0
:104260001101114845F814496030AC61EC612C62D1
:104270006C62FEF74FFB08B1FEF714FAB56300223B
:1042800011462520AE63FEF701FF2520FEF7F0FE64
:1042900006B0BDE8F0810000001001404438024043
:1042A00000000240406402407402002070472DE983
:1042B000F843044690F84100984616460D462028DB
:1042C00002D00220BDE8F88385B17EB10020606491
:1042D000212084F84100FEF7DBFCA6848146E684B9
:1042E000A0682027B0F5805F02D003E00120E9E755
:1042F000206910B12E4600250EE000260CE080213A
:10430000204603F037FEA8B9C6B116F8010B2168A4
:104310004860E08C401EE084E08C4B464FF0000289
:10432000CDF800800028EAD14FF04001204603F08C
:1043300021FE40B184F841700320C3E735F8020B39
:10434000C0F30800E3E784F841700020BAE70000FA
:1043500070B5044690F84100202801D0022070BDBD
:1043600001B3FAB12162A284E284002060642123B7
:1043700084F84130A56B144BEB63A56B134B2B6496
:10438000A56B134BEB64A36B186520681346A56BF4
:10439000021D2846FEF728FB30B110206064202063
:1043A00084F84100012070BD21686FF04000086072
:1043B0002068143050E8001F41F0800140E80012EE
:1043C000002AF5D1002070BDF17C0008337D000883
:1043D000A77C000870477047FEE701684A69D2432E
:1043E00052050FD46FF480624A61002140F8301FFB
:1043F000202242738173026942F004020261017358
:1044000001207047002070472DE9F84304460068FA
:104410000D46DDE9089701689846164641F480711B
:1044200001604B4600224FF001112046009700F03A
:104430006BF848B120680068C00502D54FF40070E1
:1044400020640320BDE8F883216805F0FE000861C0
:104450003B464A461549204600F09EF888B9206838
:104460004169806900903A464946204600F0F2F8DA
:1044700048B1206C042804D12068016841F400711F
:1044800001600120DEE7F5B2B8F1010F09D0216823
:10449000300A08613A464946204600F0DBF8002819
:1044A000E7D1206805610020CCE700000200010090
:1044B00070B516460D4604461EE02046FFF78DFFF8
:1044C00008B1012070BD681C16D0FEF7E1FB801B0F
:1044D000A84200D885B920684069C04340070BD581
:1044E000002044F8300F20216173A073216941F04E
:1044F000200121612073E4E720684069C043400740
:10450000DBD4002070BD00002DE9F0479846174627
:104510000D460446C1F30746DDF820902AE000BFAF
:10452000B8F1FF3F26D0FEF7B3FBA0EB09014145F0
:1045300002D8B8F1000F1DD12068012E16D0806975
:1045400025EA00000004000C12D00020B84211D16E
:10455000002044F8300F20216173A073216941F0DD
:104560002001216120730120BDE8F0874069E7E761
:104570000120EBE72068012E0AD0806925EA0000BF
:104580000004000C06D00020B842C9D00020EBE7A0
:104590004069F3E70120F7E72DE9F0479846164612
:1045A0000D4604464FF000094FF0200AC1F30747BB
:1045B00023E020684069C043400515D420680168A5
:1045C00041F40071016021686FF480604861C4F8B3
:1045D000309084F83DA084F83E90216C41F00401B5
:1045E000216484F83C9021E0701C06D0FEF750FB5B
:1045F000A0EB0800B04203D816B1012F1FD021E074
:104600002068012F15D0806925EA00000004000C05
:1046100018D000BF44F8309F84F80DA084F80E90A5
:10462000216941F02001216184F80C900120BDE84E
:10463000F087406925EA00000004000CEAD12068F8
:10464000406901E02068806925EA00000004000C50
:10465000AFD1ECE770B516460D4604461EE0204685
:10466000FFF7BBFE08B1012070BD681C16D0FEF735
:104670000FFB801BA84200D885B920684069C04361
:1046800000060BD5002044F8300F20216173A07381
:10469000216941F0200121612073E4E7206840692D
:1046A000C0430006DBD4002070BD00000349C87879
:1046B000002801D00022CA707047000020000020AE
:1046C00010B5104C02212046FEF7D0FA88B1012126
:1046D0002046FEF7CBFA70B161150B4C2046FEF771
:1046E000C5FA50B1A1152046FEF7C0FA38B1002036
:1046F00010BD012010BD022010BD032010BD0420FC
:1047000010BD0000001002400004024010B50A4C29
:104710002078401CC0B2207014280CD300202070D8
:104720006078A070FFF7CCFF6070002803D1A078FC
:10473000002800D0E07010BD2000002030B40160DF
:104740000C46828000218171134620460A4630BC07
:104750001946FEF798BA817139B1012909D00229A9
:104760000CD181880068FEF786BA81880068002233
:1047700002E0818800680122FEF785BA70470000D8
:10478000154808B5016841F4800101600068002205
:1047900000F48000009011463820FEF777FC3820A6
:1047A000FEF766FC002211463A20FEF76FFC3A2025
:1047B000FEF75EFC002211463B20FEF767FC3B2023
:1047C000FEF756FC002211464620FEF75FFCBDE8CE
:1047D00008404620FEF74CBC30380240F0B587B0A8
:1047E00014216846FBF738FD2D480024016841F08C
:1047F00004010160016801F004010591016841F0C4
:1048000080010160016801F080010591016841F0BB
:1048100001010160016801F001010591016841F0A9
:1048200002010160016801F002010591016841F097
:104830001001016000681B4E00F010004FF400559D
:104840000590002229463046FEF71DFA164F002239
:1048500010213846FEF717FA00950125CDE90154DD
:10486000694630460394FEF709F910200090CDE91F
:104870000154694638460394FEF700F94FF440703E
:104880008DE8310069460948FEF7F8F803208DE805
:10489000310069460648FEF7F1F807B0F0BD0000A8
:1048A000303802400008024000000240000402408C
:1048B000001002400D4810B50B4901600C494FF43F
:1048C0008042C0E901120021C0E903124161816107
:1048D000C1610162FEF7E2F9002803D0BDE8104093
:1048E000FDF7E0BE10BD000000540040780000203D
:1048F000801A0600104810B50E4901604FF482710D
:104900004160002102228160C0E90312012242615C
:10491000520282611822C0E90721416281620A21A4
:10492000C162FEF786FE002803D0BDE81040FDF707
:10493000B9BE10BD00300140CC00002010B586B0DB
:1049400000241748009401940294039404944FF0B7
:104950008041059401605321C0E9011440F2E73120
:10496000C0E9031480218161FFF700F908B1FDF768
:1049700099FE4FF48050009069460948FFF780F98E
:1049800008B1FDF78FFE049404A905480594FFF7CC
:10499000A5F8002801D0FDF785FE06B010BD000087
:1049A000E40100200C4810B50A4901604FF4E131E0
:1049B0004160002181600C22C160C0E90412816164
:1049C000C161FFF7CDFB002803D0BDE81040FDF723
:1049D00069BE10BD001001402C020020FEE718B196
:1049E000406808B100F0DEB9002070473023802213
:1049F0001021002001F0C0B970B506002ED07068FB
:104A000000282BD000F067FA040027D000220AE02B
:104A100094F84000C00701D0521CD2B2204600F0EA
:104A200066FA04001AD096F835009042F0D80025B6
:104A300010E000BF94F84000C00706D02A46214687
:104A4000304600F02BF86D1CEDB2204600F04FFA16
:104A5000040003D096F83800A842EBD870BD10B51A
:104A600004001AD094F83600002816D0FFF7BEFFD5
:104A7000204600F0DBF82046FFF7BEFF2046FFF798
:104A8000AEFF94F83810884202D9204600F054F85E
:104A900002F0BAFB002084F8360010BD70B5154650
:104AA0000C00064615D0102000EB0510C1B21023F3
:104AB0007C22002001F060F9B0682946A04220461F
:104AC00003D1BDE8704000F079B8BDE8704000F057
:104AD00001B870BD30B58DB0040020D0102000EBBF
:104AE0000110C5B200200B9094F82000012805D0D9
:104AF000022801D00BA102E00BA100E00BA10BA842
:104B0000FBF7D6FB0BAB0AA2282101A8009403F007
:104B100083FA062301AA291D022002F057FA0DB0DC
:104B200030BD0000202000003E2000002A200000B0
:104B300025732573000000002DE9F04103003BD0F0
:104B4000586800F02FF993F83810814234D201EB05
:104B500041021201B2FBF0F2D6B2042E00D20426BA
:104B600093F83520C6F1300312FB03F2401A92FB92
:104B7000F0F01030C7B210257C2405E07F2C03D163
:104B80002946204601F0D4FC641CE4B2802CF5D305
:104B90006D1CEDB2402DEFD33C463E440AE07C252F
:104BA0002146284601F0C4FC6D1CEDB2802DF7D3E0
:104BB000641CE4B2A642F2D8BDE8F08130B58DB0F5
:104BC000040026D0102000EB0110C5B200200B908D
:104BD00094F82000012805D0022801D00EA102E09F
:104BE0000EA100E00EA10BA8FBF762FB0BAB0DA220
:104BF000282101A8009403F00FFA062301AA291D19
:104C0000022002F0E3F910237C222946002001F063
:104C10003BFF0DB030BD0000202000003E20000012
:104C20002A200000257325730000000010B588B00D
:104C300004003AD06068002837D020221C4968461A
:104C4000FBF7F1FA6168886A98B11F226846FBF7A2
:104C50000EFB00208DF81F006846FBF714FBC00612
:104C6000000E80280AD2C0F1800000EBD070401006
:104C700005E010A16846FBF71BFBEDE70020C4B27E
:104C8000002110238022084601F076F808236A46A6
:104C90000021204602F09AF900240F21204601F05D
:104CA00047FC641CE4B2802CF7D308B010BD0000B0
:104CB00030A200084D61696E204D656E75000000E0
:104CC00030B505000C4614D0002C12D0A06A08B1F3
:104CD00000F0E7F9A562E96A002059B1296BC4E93F
:104CE0000D01286B44632C6314F8400F40F0010061
:104CF000207030BDEC622C63A0636063F4E70000B9
:104D000010B5020027D09468002C24D050680028E9
:104D100021D0002300F0DFF808E000BF90F8401039
:104D2000C90701D05B1CDBB200F0E1F808B1A0427A
:104D3000F4D192F8354001209C4202D902F8353F67
:104D400008E092F838100C449C4204D8591A491CC7
:104D500002F8351F507010BD002804D090F83400C0
:104D6000002800D00120704710B5040007D028218A
:104D700004F10C00FBF770FA002084F8340010BD39
:104D8000012807D0022807D0032807D0042807D01D
:104D900004207047002070470120704702207047B0
:104DA0000320704701004FF000000AD0C96A06E0F6
:104DB00091F84020D20701D0401CC0B2496B0029B5
:104DC000F6D170472DE9F0410546174B00201C5CD9
:104DD00034B1401CC0B23228F9D30020BDE8F081C4
:104DE00001241C54104B00EB0010703313EB8004B3
:104DF000F3D00F46164644212046FBF72DFA35B175
:104E00001F2229462046FBF732FA0021E17784F879
:104E10002070666294F8400020F0060040F0010126
:104E2000204684F84010D9E7CC07002070B5040074
:104E30001ED0E06A03E0456BFFF7F8FF2846002824
:104E4000F9D1A06A10B1214600F02BF920000FD053
:104E500008494422411A91FBF2F1322903D2054B51
:104E60000022703B5A54BDE870404421FBF7F4B96E
:104E700070BD00003C08002000280BD0816800298C
:104E800008D091F82020022A04D1CA6A002A01D051
:104E900000F0A0B8704770B504001BD0A0680028CF
:104EA00018D090F82010002914D0012906D002292A
:104EB00010D12046BDE87040FFF7DEBF416A0029EF
:104EC00008D0012584F83750406A363480470020E6
:104ED0006070257070BD002808D0C06A04E090F8AA
:104EE0004010C90702D1406B0028F8D17047002854
:104EF00006D0406B002803D090F84010C907F8D0C6
:104F00007047002806D0806B002803D090F840102E
:104F1000C907F8D0704710B5020026D0FFF71CFF74
:104F2000002822D0506808B19168C163104600F093
:104F300080F8030019D05360D86B906040B1816A4B
:104F4000994205D190F84000C00701D0906803E075
:104F50001846FFF7C0FF9060D863012082F8360042
:104F6000BDE810401046FFF7CBBE10BD30B400289E
:104F700006D090F83740002201231CB1032915D038
:104F800030BC70470629FBD2DFE801F004070A0DA8
:104F90000310F5E730BC00F0BEB830BC00F0A8B894
:104FA00030BCFFF778BF30BCFFF7B5BF80F83720C3
:104FB00080F83630E4E710B504000AD03C21FBF756
:104FC0004BF9032084F83800002004F8340F012046
:104FD000A07010BD70B50D46040029D0002D27D05B
:104FE000606840B1A168C163616821B1A94202D083
:104FF000204600F02DF86560E86BA06040B1816A42
:10500000A94205D190F84000C00701D0A06803E094
:105010002846FFF760FFA060E863002084F83500B1
:10502000012084F836002046BDE87040FFF768BED6
:1050300070BD002809D090F8341039B1491EC9B2AA
:1050400080F8341000EB8100C06870470020704782
:1050500020B119B190F834200A2A01D300207047FA
:1050600000EB8203521C80F834200120D960704785
:1050700000B5030014D05868002811D0996811B900
:10508000FFF729FF98605868FFF78CFE93F83810F7
:10509000814202D3002083F83500012083F83600D6
:1050A00000BD002816D0002914D08A6A824211D18E
:1050B0008A6B12B14B6B536301E04A6BC2624A6B5D
:1050C00012B1886B906301E08A6B026300208862F2
:1050D00088634863704710B5040008D0206808B1A1
:1050E000FFF7A4FE2046BDE81040FFF764BF10BDE7
:1050F00010B504000ED0A06800280BD0FFF7F7FE13
:10510000010007D0204600F02AF82046BDE81040F4
:10511000FFF7F6BD10BD10B504000ED0A068002842
:105120000BD0FFF7EEFE010007D0204600F017F885
:105130002046BDE81040FFF7E3BD10BD00B50B46AB
:1051400002000BD0002B09D0136018465360FFF704
:10515000C2FE9060D863012082F8360000BD0028AE
:1051600015D0002913D0826822B112F8403F23F0F5
:1051700002031370816091F8402042F0020281F82E
:105180004020426802B1D163012180F83610704797
:10519000F8B50D46040040F201266BD0A421FBF7C0
:1051A0005BF81DB1012D03D0022D03D0324D02E07A
:1051B000324D00E0324D002D5CD0052000900A23D6
:1051C00022463146284600F089FA0020C4F87800CB
:1051D00000EB400104EB810191ED010AB5EEC00A3C
:1051E000F1EE10FA04DD411C401CA1670A28EFD340
:1051F000052304F180023146284600F079F8314653
:10520000284600F0FDF884ED250A3146284600F0D6
:10521000C9F884ED260A3146284600F01DF984EDD0
:10522000270A9FED180A002084ED1F0A05EB800174
:1052300094ED1F1AD1ED000A401CB04200EEA01AF6
:1052400084ED1F1AF2D3002005EB8001D1ED000A96
:10525000F4EEC00AF1EE10FA01DDB0EE600A401C77
:10526000B042F1D3D4ED260A3146284600F0B8F812
:1052700084ED280AF8BD000088D700208CDF0020CC
:1052800090E70020000000002DE9F0410D460600E7
:105290002CD0002D2AD096ED000AB5EEC00AF1EE12
:1052A00010FA01DAB1EE400A012485ED000A670226
:1052B00006EBC40090EC020A20EE000A00EEA00A01
:1052C00003F0B2FA05EB8400641C80ED000ABC42D6
:1052D000EED396ED010AB5EEC00AF1EE10FA01DA4E
:1052E000B1EE400A05F5006585ED000ABDE8F081E4
:1052F000F0B5DFED2A0A0028B0EE600A4DD0002A92
:105300004BD0002949D0002B47D0002407E000BF34
:1053100000EB8405641C95ED001A01EE010A8C4235
:10532000F6D3002405E000BF02EB8405641CC5ED44
:10533000000A9C42F8D3B1FBF3F700242BE000BF36
:105340005E1E04FB07F5B44201D14E1E02E0661C4E
:105350007E43761EB44602EB84060AE000EB850E1F
:1053600096ED001ADEED000A6D1C00EEA01A86ED27
:10537000001A6545F2D9B5EEC00AF1EE10FA09DD62
:1053800096ED001AC1EE000A9FED051A60EE810A43
:10539000C6ED000A641C9C42D2D3F0BD00000000A0
:1053A0000000C8429FED0D0A0028F0EE400A14D01C
:1053B000002912D0002206E000EB8203521C93ED7C
:1053C000001A71EE200A8A42F6D3002905D000EEB9
:1053D000101AB8EE401A80EE810A704700000000F3
:1053E000F5EEC00AF1EE10FA04DD80EE201AB0EE00
:1053F000410A70479FED010A70470000000000005D
:105400009FED140A0028B0EE401AF0EE400A1FD0BB
:1054100000291DD00022F0EE092A10E001EE902AAA
:1054200000EB8203521CF8EE611A21EEA22AD3EDA2
:10543000001A61EEA11A02EE211A70EEA10A8A4248
:10544000ECD3F5EEC00AF1EE10FA01DD81EE200A90
:105450007047000000000000F0EE401A9FED0E0AB9
:105460000028F0EE400A16D0002914D0002208E0EF
:1054700000EB8203521C93ED001A31EE611A41EEEB
:10548000010A8A42F4D3002905D000EE101AB8EEC2
:10549000401A80EE810A7047000000002DE9F043B9
:1054A00097B00E4604004FF000057DD000F050FC90
:1054B000644A14AB07CA83E807000320B6FBF0F187
:1054C00000FB116014A951F820205FA104A802F08C
:1054D000BDFD04AB06222946002001F0ACFAA06F06
:1054E000082168B35DA30622002001F0A4FA10266B
:1054F00020E000BF05EB450004EB8009D9F804006B
:10550000FBF7BDF807468846D9F80000FBF7B7F867
:105510000B4602468DE88C016A1C53A104A802F0D8
:1055200095FD04AB06223146002001F084FA0836CE
:10553000F6B26D1CA06FA84208D9032DDAD305E09E
:105540004EA30622002001F076FA1026D4F894002B
:10555000FBF795F841EC100B4DA153EC102B04A870
:1055600002F074FD04AB06223146002001F063FA1C
:105570000836F5B2E06FFBF782F841EC100B49A159
:1055800053EC102B04A802F061FD04AB062229465F
:10559000002001F050FA0835EDB2D4F8A000FBF776
:1055A0006EF841EC100B00E039E053EC102B41A1F8
:1055B00004A802F04BFD04AB06222946002001F0AE
:1055C0003AFA0835EDB205F11000402825D23CA387
:1055D00006222946002001F02EFA0835EEB20025F9
:1055E000E80704EB8500D0F880001BD0FBF747F8F4
:1055F000CDE900016A1C36A104A802F027FD04AB26
:1056000006223146402001F016FA0836F6B26D1C2B
:10561000EDB2052D01D2042DE2D301F0F5FD17B056
:10562000BDE8F083FBF72BF8CDE900016A1C28A147
:1056300004A802F00BFD04AB06223146002001F065
:10564000FAF9E4E7D4A200084178697320257320B1
:10565000416E616C7973697300000000546F7020B3
:105660005065616B733A0000256C753A20252E3128
:1056700066487A20252E3366000000004E6F2070A9
:1056800065616B7320646574656374656400000014
:1056900043656E74726F69643A20252E3166204826
:1056A0007A000000456E657267793A20252E3365D1
:1056B000000000005041523A20252E3266000000C2
:1056C000456E6572677920446973742825293A000C
:1056D0004225643A252E3166000000002DE9F0478E
:1056E0001F462DED028B1646DDF828A00C465FEA1A
:1056F00000084FF0000575D0002E73D0032C71D335
:10570000002F6FD040F201218C4200D90C460020BE
:10571000DFED528A81460AE000EB400206EB82028E
:10572000401CC2ED008AC2ED018AC2F80890B8425E
:10573000F2D34B48FAF790FD0120494A8446611E96
:1057400015E000BF08EB800393ED000A53ED010A5A
:10575000B4EEE00AF1EE10FA08DDD3ED010AB4EE82
:10576000E00AF1EE10FA01DD02F800C0401C8842A8
:10577000E8D3002344E000BF0021B0EE688A084669
:1057800012E000BF12F800C0BCF1000F0BD008EB14
:10579000800C9CED000AB4EEC80AF1EE10FA02DDAE
:1057A000B0EE408A0146401CA042EBD3B5EEC08A61
:1057B000F1EE10FA26D000EE101A05EB4500F0EEDF
:1057C000090AB8EE400A06EB80006D1C816020EEED
:1057D000200A514580ED000A80ED018A03D9A1EB32
:1057E0000A0001E036E000205144A14200D3611ECE
:1057F000CC4602E002F800C0401C8842FAD95B1C8B
:10580000BB42B9D3002023E0411C1EE000EB400264
:1058100006EB820301EB410206EB820293ED000AE4
:10582000D2ED000AB4EEE00AF1EE10FA0CDDD3E995
:10583000019CE246D2E9018CC3ED000A10EE104A49
:10584000C3E9018C82E81006491CA942DED3401C42
:10585000A842D9D3BDEC028BBDE8F0870000000060
:10586000841500202DE9F0411D4D00242DED028B03
:1058700005F580569FED198A05F500574FF48068AD
:10588000FCF7F6FC00EE100A05EB8400B8EEC00A47
:1058900020EE080A80ED000AFCF7FBFC00EE100A7F
:1058A00006EB8400B8EEC00A20EE080A80ED000A7C
:1058B000FCF700FD00EE100A07EB8400641CB8EE54
:1058C000C00A444520EE080A80ED000AD8DBBDEC92
:1058D000028B04A0BDE8F04102F08EBB0000803BCB
:1058E000881700204453505F496E697420636F6DC0
:1058F000706C657465642E0A000000002DE9F041AB
:105900002DED028BACB0FFF7ADFF03F06FFD4FF450
:105910008061754803F0D6FD00F0E2F9734B40F268
:105920000124A3F10C0221467148FBF76DFE6F4B79
:1059300021461B1DA3F10C026E48FBF765FE6B4B65
:1059400021460833A3F10C026B48FBF75DFE674C60
:10595000B0EE098A0C3C94ED030AB8EE400A20EE42
:10596000080A10EE100AFAF78AFE05460E4620686D
:10597000FAF785FE41EC100BCDE9005653EC102BE5
:105980005EA002F039FB94ED040AB8EE400A20EE66
:10599000080A10EE100AFAF772FE05460E46606815
:1059A000FAF76DFE41EC100BCDE9005653EC102BCD
:1059B0005EA002F021FB94ED050AB8EE400A20EE4D
:1059C000080A10EE100AFAF75AFE05460E46A068BD
:1059D000FAF755FE41EC100BCDE9005653EC102BB5
:1059E0005EA002F009FB002102A8FFF7D1FB002115
:1059F00002A8FFF753FD65A002F0FEFA2198FAF71E
:105A00003EFE41EC100B6DA053EC102B02F0F4FAAB
:105A10002798FAF734FE41EC100B6DA053EC102BD5
:105A200002F0EAFA2898FAF72AFE41EC100B6FA070
:105A300053EC102B02F0E0FA2998FAF720FE41EC23
:105A4000100B70A053EC102B02F0D6FA2A98FAF73C
:105A500016FE41EC100B72A053EC102B02F0CCFAA6
:105A600020980DF10808F8B1014675A002F0C4FABB
:105A7000002416E004EB440108EB81077868FAF78C
:105A8000FEFD05460E463868FAF7F9FD41EC100BAD
:105A9000CDE9005653EC102B611C6FA002F0ACFA5C
:105AA000641C2098A042E5D875A002F0A5FA002455
:105AB0004FEA080505EB8400D0F88000FAF7DFFD17
:105AC00041EC100B611C53EC102B74A002F094FA03
:105AD000641CE4B2052CEDD375A002F08DFA2CB055
